{
  "contractName": "Lottery",
  "abi": [
    {
      "inputs": [],
      "payable": false,
      "stateMutability": "nonpayable",
      "type": "constructor"
    },
    {
      "constant": true,
      "inputs": [],
      "name": "manager",
      "outputs": [
        {
          "internalType": "address",
          "name": "",
          "type": "address"
        }
      ],
      "payable": false,
      "stateMutability": "view",
      "type": "function"
    },
    {
      "constant": true,
      "inputs": [
        {
          "internalType": "uint256",
          "name": "",
          "type": "uint256"
        }
      ],
      "name": "players",
      "outputs": [
        {
          "internalType": "address payable",
          "name": "",
          "type": "address"
        }
      ],
      "payable": false,
      "stateMutability": "view",
      "type": "function"
    },
    {
      "constant": true,
      "inputs": [],
      "name": "winner",
      "outputs": [
        {
          "internalType": "address payable",
          "name": "",
          "type": "address"
        }
      ],
      "payable": false,
      "stateMutability": "view",
      "type": "function"
    },
    {
      "constant": false,
      "inputs": [],
      "name": "addPlayer",
      "outputs": [],
      "payable": true,
      "stateMutability": "payable",
      "type": "function"
    },
    {
      "constant": true,
      "inputs": [],
      "name": "getPlayers",
      "outputs": [
        {
          "internalType": "address payable[]",
          "name": "",
          "type": "address[]"
        }
      ],
      "payable": false,
      "stateMutability": "view",
      "type": "function"
    },
    {
      "constant": true,
      "inputs": [],
      "name": "getBalance",
      "outputs": [
        {
          "internalType": "uint256",
          "name": "",
          "type": "uint256"
        }
      ],
      "payable": false,
      "stateMutability": "view",
      "type": "function"
    },
    {
      "constant": true,
      "inputs": [],
      "name": "random",
      "outputs": [
        {
          "internalType": "uint256",
          "name": "",
          "type": "uint256"
        }
      ],
      "payable": false,
      "stateMutability": "view",
      "type": "function"
    },
    {
      "constant": false,
      "inputs": [],
      "name": "selectWinner",
      "outputs": [],
      "payable": false,
      "stateMutability": "nonpayable",
      "type": "function"
    }
  ],
  "bytecode": "0x608060405234801561001057600080fd5b5033600160006101000a81548173ffffffffffffffffffffffffffffffffffffffff021916908373ffffffffffffffffffffffffffffffffffffffff1602179055506105d1806100616000396000f3fe60806040526004361061007b5760003560e01c80635ec01e4d1161004e5780635ec01e4d146101235780638b5b9ccc1461014e578063dfbf53ae146101ba578063f71d96cb146102115761007b565b806312065fe01461008057806327b5db8a146100ab57806333a99e04146100b5578063481c6a75146100cc575b600080fd5b34801561008c57600080fd5b5061009561028c565b6040518082815260200191505060405180910390f35b6100b36102ee565b005b3480156100c157600080fd5b506100ca61036b565b005b3480156100d857600080fd5b506100e1610440565b604051808273ffffffffffffffffffffffffffffffffffffffff1673ffffffffffffffffffffffffffffffffffffffff16815260200191505060405180910390f35b34801561012f57600080fd5b50610138610466565b6040518082815260200191505060405180910390f35b34801561015a57600080fd5b506101636104ac565b6040518080602001828103825283818151815260200191508051906020019060200280838360005b838110156101a657808201518184015260208101905061018b565b505050509050019250505060405180910390f35b3480156101c657600080fd5b506101cf61053a565b604051808273ffffffffffffffffffffffffffffffffffffffff1673ffffffffffffffffffffffffffffffffffffffff16815260200191505060405180910390f35b34801561021d57600080fd5b5061024a6004803603602081101561023457600080fd5b8101908080359060200190929190505050610560565b604051808273ffffffffffffffffffffffffffffffffffffffff1673ffffffffffffffffffffffffffffffffffffffff16815260200191505060405180910390f35b6000600160009054906101000a900473ffffffffffffffffffffffffffffffffffffffff1673ffffffffffffffffffffffffffffffffffffffff163373ffffffffffffffffffffffffffffffffffffffff16146102e857600080fd5b47905090565b67016345785d8a000034101561030357600080fd5b60003390806001815401808255809150509060018203906000526020600020016000909192909190916101000a81548173ffffffffffffffffffffffffffffffffffffffff021916908373ffffffffffffffffffffffffffffffffffffffff16021790555050565b600160009054906101000a900473ffffffffffffffffffffffffffffffffffffffff1673ffffffffffffffffffffffffffffffffffffffff163373ffffffffffffffffffffffffffffffffffffffff16146103c557600080fd5b60006001815481106103d357fe5b9060005260206000200160009054906101000a900473ffffffffffffffffffffffffffffffffffffffff16600260006101000a81548173ffffffffffffffffffffffffffffffffffffffff021916908373ffffffffffffffffffffffffffffffffffffffff160217905550565b600160009054906101000a900473ffffffffffffffffffffffffffffffffffffffff1681565b600044426000805490506040516020018084815260200183815260200182815260200193505050506040516020818303038152906040528051906020012060001c905090565b6060600080548060200260200160405190810160405280929190818152602001828054801561053057602002820191906000526020600020905b8160009054906101000a900473ffffffffffffffffffffffffffffffffffffffff1673ffffffffffffffffffffffffffffffffffffffff16815260200190600101908083116104e6575b5050505050905090565b600260009054906101000a900473ffffffffffffffffffffffffffffffffffffffff1681565b6000818154811061056d57fe5b906000526020600020016000915054906101000a900473ffffffffffffffffffffffffffffffffffffffff168156fea265627a7a72315820e1436fb0cd1d5aa7a80837945fc948cc759da4e9eb336d7e667ad3ba3e19118764736f6c63430005100032",
  "source": "pragma solidity >=0.5.0 <0.9.0;\r\n\r\ncontract Lottery {\r\n\r\n    address payable[] public players; // A dynamic array of Ethereum addresses participating in the lottery.\r\n    address public manager;\r\n    address payable public winner;\r\n\r\n    constructor() public {\r\n        manager = msg.sender;\r\n    }\r\n\r\n    // This receive function will be automatically called when someone sends ether to our contract address.\r\n    function addPlayer() public payable {\r\n        require(msg.value >= 0.1 ether);\r\n        players.push(msg.sender);\r\n    }\r\n\r\n    function getPlayers() public view returns(address payable[] memory) {\r\n        return players;\r\n    }\r\n\r\n    function getBalance() public view returns(uint) {\r\n        require(msg.sender == manager);\r\n        return address(this).balance; // Return the contract balance.\r\n    }\r\n\r\n    // Now we need to calculate a random number, which will be used to select the winner of the lottery\r\n    // (more on that later). But unlike many other programming languages solidity\r\n    // doesn't have an in-built function for it. Therefore we need to write our own function for this.\r\n    function random() public view returns(uint256) { // We want our function to return a large random number.\r\n        return uint256(keccak256(abi.encodePacked(block.difficulty, block.timestamp, players.length)));\r\n        // In Solidity version 0.5.0 the keccak256 function takes only one argument, but in previous versions\r\n        // it could take more. Keep that in mind!\r\n    }\r\n\r\n    function selectWinner() public {\r\n        require(msg.sender == manager);\r\n        winner = players[1];\r\n        // require(players.length >= 3);\r\n        // uint r = random();\r\n        // winner = players[(r % players.length)];\r\n        // winner.transfer(address(this).balance);\r\n\r\n        // players = new address payable[](0);\r\n    }\r\n\r\n\r\n\r\n\r\n}\r\n",
  "sourcePath": "C:\\Users\\lenovo 50-70\\Documents\\Learning_Blockchain\\My_Dapps_Smart_Contracts\\My_Own\\Lottery\\src\\contracts\\Lottery.sol",
  "compiler": {
    "name": "solc",
    "version": "0.5.16+commit.9c3226ce.Emscripten.clang"
  },
  "schemaVersion": "3.2.0",
  "updatedAt": "2022-03-11T16:02:57.960Z",
  "devdoc": {
    "methods": {}
  },
  "userdoc": {
    "methods": {}
  }
}